{"abi":[{"type":"constructor","inputs":[{"name":"_platformWallet","type":"address","internalType":"address"}],"stateMutability":"nonpayable"},{"type":"function","name":"PLATFORM_FEE","inputs":[],"outputs":[{"name":"","type":"uint256","internalType":"uint256"}],"stateMutability":"view"},{"type":"function","name":"acceptTask","inputs":[{"name":"_taskId","type":"uint256","internalType":"uint256"}],"outputs":[],"stateMutability":"nonpayable"},{"type":"function","name":"createTask","inputs":[{"name":"_description","type":"string","internalType":"string"}],"outputs":[],"stateMutability":"payable"},{"type":"function","name":"getTask","inputs":[{"name":"_taskId","type":"uint256","internalType":"uint256"}],"outputs":[{"name":"","type":"tuple","internalType":"struct TaskEscrow.Task","components":[{"name":"taskId","type":"uint256","internalType":"uint256"},{"name":"employer","type":"address","internalType":"address"},{"name":"worker","type":"address","internalType":"address"},{"name":"payment","type":"uint256","internalType":"uint256"},{"name":"description","type":"string","internalType":"string"},{"name":"proofUrl","type":"string","internalType":"string"},{"name":"status","type":"uint8","internalType":"enum TaskEscrow.TaskStatus"}]}],"stateMutability":"view"},{"type":"function","name":"getTotalTasks","inputs":[],"outputs":[{"name":"","type":"uint256","internalType":"uint256"}],"stateMutability":"view"},{"type":"function","name":"isTaskAvailable","inputs":[{"name":"_taskId","type":"uint256","internalType":"uint256"}],"outputs":[{"name":"","type":"bool","internalType":"bool"}],"stateMutability":"view"},{"type":"function","name":"platformWallet","inputs":[],"outputs":[{"name":"","type":"address","internalType":"address"}],"stateMutability":"view"},{"type":"function","name":"submitWork","inputs":[{"name":"_taskId","type":"uint256","internalType":"uint256"},{"name":"_proofUrl","type":"string","internalType":"string"}],"outputs":[],"stateMutability":"nonpayable"},{"type":"function","name":"taskCounter","inputs":[],"outputs":[{"name":"","type":"uint256","internalType":"uint256"}],"stateMutability":"view"},{"type":"function","name":"tasks","inputs":[{"name":"","type":"uint256","internalType":"uint256"}],"outputs":[{"name":"taskId","type":"uint256","internalType":"uint256"},{"name":"employer","type":"address","internalType":"address"},{"name":"worker","type":"address","internalType":"address"},{"name":"payment","type":"uint256","internalType":"uint256"},{"name":"description","type":"string","internalType":"string"},{"name":"proofUrl","type":"string","internalType":"string"},{"name":"status","type":"uint8","internalType":"enum TaskEscrow.TaskStatus"}],"stateMutability":"view"},{"type":"function","name":"verifyAndRelease","inputs":[{"name":"_taskId","type":"uint256","internalType":"uint256"}],"outputs":[],"stateMutability":"nonpayable"},{"type":"event","name":"PaymentReleased","inputs":[{"name":"taskId","type":"uint256","indexed":true,"internalType":"uint256"},{"name":"worker","type":"address","indexed":true,"internalType":"address"},{"name":"amount","type":"uint256","indexed":false,"internalType":"uint256"}],"anonymous":false},{"type":"event","name":"TaskAccepted","inputs":[{"name":"taskId","type":"uint256","indexed":true,"internalType":"uint256"},{"name":"worker","type":"address","indexed":true,"internalType":"address"}],"anonymous":false},{"type":"event","name":"TaskCreated","inputs":[{"name":"taskId","type":"uint256","indexed":true,"internalType":"uint256"},{"name":"employer","type":"address","indexed":true,"internalType":"address"},{"name":"payment","type":"uint256","indexed":false,"internalType":"uint256"},{"name":"description","type":"string","indexed":false,"internalType":"string"}],"anonymous":false},{"type":"event","name":"WorkSubmitted","inputs":[{"name":"taskId","type":"uint256","indexed":true,"internalType":"uint256"},{"name":"proofUrl","type":"string","indexed":false,"internalType":"string"}],"anonymous":false}],"bytecode":{"object":"0x608060405234801561000f575f5ffd5b506040516122a93803806122a983398181016040528101906100319190610142565b5f73ffffffffffffffffffffffffffffffffffffffff168173ffffffffffffffffffffffffffffffffffffffff160361009f576040517f08c379a0000000000000000000000000000000000000000000000000000000008152600401610096906101c7565b60405180910390fd5b805f5f6101000a81548173ffffffffffffffffffffffffffffffffffffffff021916908373ffffffffffffffffffffffffffffffffffffffff160217905550506101e5565b5f5ffd5b5f73ffffffffffffffffffffffffffffffffffffffff82169050919050565b5f610111826100e8565b9050919050565b61012181610107565b811461012b575f5ffd5b50565b5f8151905061013c81610118565b92915050565b5f60208284031215610157576101566100e4565b5b5f6101648482850161012e565b91505092915050565b5f82825260208201905092915050565b7f496e76616c696420706c6174666f726d2077616c6c65740000000000000000005f82015250565b5f6101b160178361016d565b91506101bc8261017d565b602082019050919050565b5f6020820190508181035f8301526101de816101a5565b9050919050565b6120b7806101f25f395ff3fe60806040526004361061009b575f3560e01c806334fbc9a11161006357806334fbc9a1146101835780633c93b905146101ad57806358671730146101d75780638d97767214610201578063da8accf914610243578063fa2af9da1461026b5761009b565b8063111002aa1461009f5780631bf6912d146100bb5780631d65e77e146100e3578063322ac83d1461011f5780633237803d1461015b575b5f5ffd5b6100b960048036038101906100b49190611323565b610295565b005b3480156100c6575f5ffd5b506100e160048036038101906100dc919061139d565b6104d4565b005b3480156100ee575f5ffd5b506101096004803603810190610104919061139d565b610736565b6040516101169190611589565b60405180910390f35b34801561012a575f5ffd5b506101456004803603810190610140919061139d565b610978565b60405161015291906115c3565b60405180910390f35b348015610166575f5ffd5b50610181600480360381019061017c919061139d565b610a32565b005b34801561018e575f5ffd5b50610197610dba565b6040516101a491906115eb565b60405180910390f35b3480156101b8575f5ffd5b506101c1610dbf565b6040516101ce91906115eb565b60405180910390f35b3480156101e2575f5ffd5b506101eb610dc8565b6040516101f891906115eb565b60405180910390f35b34801561020c575f5ffd5b506102276004803603810190610222919061139d565b610dce565b60405161023a979695949392919061166a565b60405180910390f35b34801561024e575f5ffd5b50610269600480360381019061026491906116e5565b610f62565b005b348015610276575f5ffd5b5061027f61113c565b60405161028c919061173f565b60405180910390f35b5f34116102d7576040517f08c379a00000000000000000000000000000000000000000000000000000000081526004016102ce906117a2565b60405180910390fd5b6040518060e0016040528060015481526020013373ffffffffffffffffffffffffffffffffffffffff1681526020015f73ffffffffffffffffffffffffffffffffffffffff16815260200134815260200182815260200160405180602001604052805f81525081526020015f600481111561035557610354611476565b5b81525060025f60015481526020019081526020015f205f820151815f01556020820151816001015f6101000a81548173ffffffffffffffffffffffffffffffffffffffff021916908373ffffffffffffffffffffffffffffffffffffffff1602179055506040820151816002015f6101000a81548173ffffffffffffffffffffffffffffffffffffffff021916908373ffffffffffffffffffffffffffffffffffffffff16021790555060608201518160030155608082015181600401908161041e91906119ce565b5060a082015181600501908161043491906119ce565b5060c0820151816006015f6101000a81548160ff0219169083600481111561045f5761045e611476565b5b02179055509050503373ffffffffffffffffffffffffffffffffffffffff166001547fedce45cc3fc2bea98c94b72104f4a750dcc91bd183a01870ed4f93a365eba5b934846040516104b2929190611a9d565b60405180910390a360015f8154809291906104cc90611af8565b919050555050565b5f60025f8381526020019081526020015f2090505f73ffffffffffffffffffffffffffffffffffffffff16816001015f9054906101000a900473ffffffffffffffffffffffffffffffffffffffff1673ffffffffffffffffffffffffffffffffffffffff1603610579576040517f08c379a000000000000000000000000000000000000000000000000000000000815260040161057090611b89565b60405180910390fd5b5f600481111561058c5761058b611476565b5b816006015f9054906101000a900460ff1660048111156105af576105ae611476565b5b146105ef576040517f08c379a00000000000000000000000000000000000000000000000000000000081526004016105e690611bf1565b60405180910390fd5b3373ffffffffffffffffffffffffffffffffffffffff16816001015f9054906101000a900473ffffffffffffffffffffffffffffffffffffffff1673ffffffffffffffffffffffffffffffffffffffff1603610680576040517f08c379a000000000000000000000000000000000000000000000000000000000815260040161067790611c59565b60405180910390fd5b33816002015f6101000a81548173ffffffffffffffffffffffffffffffffffffffff021916908373ffffffffffffffffffffffffffffffffffffffff1602179055506001816006015f6101000a81548160ff021916908360048111156106e9576106e8611476565b5b02179055503373ffffffffffffffffffffffffffffffffffffffff16827fc8717b61398fb9d7cacf49fe1e296b2f10e9711226b532842b6ffd642cb6a2c660405160405180910390a35050565b61073e611160565b60025f8381526020019081526020015f206040518060e00160405290815f8201548152602001600182015f9054906101000a900473ffffffffffffffffffffffffffffffffffffffff1673ffffffffffffffffffffffffffffffffffffffff1673ffffffffffffffffffffffffffffffffffffffff168152602001600282015f9054906101000a900473ffffffffffffffffffffffffffffffffffffffff1673ffffffffffffffffffffffffffffffffffffffff1673ffffffffffffffffffffffffffffffffffffffff16815260200160038201548152602001600482018054610827906117ed565b80601f0160208091040260200160405190810160405280929190818152602001828054610853906117ed565b801561089e5780601f106108755761010080835404028352916020019161089e565b820191905f5260205f20905b81548152906001019060200180831161088157829003601f168201915b505050505081526020016005820180546108b7906117ed565b80601f01602080910402602001604051908101604052809291908181526020018280546108e3906117ed565b801561092e5780601f106109055761010080835404028352916020019161092e565b820191905f5260205f20905b81548152906001019060200180831161091157829003601f168201915b50505050508152602001600682015f9054906101000a900460ff16600481111561095b5761095a611476565b5b600481111561096d5761096c611476565b5b815250509050919050565b5f5f600481111561098c5761098b611476565b5b60025f8481526020019081526020015f206006015f9054906101000a900460ff1660048111156109bf576109be611476565b5b148015610a2b57505f73ffffffffffffffffffffffffffffffffffffffff1660025f8481526020019081526020015f206001015f9054906101000a900473ffffffffffffffffffffffffffffffffffffffff1673ffffffffffffffffffffffffffffffffffffffff1614155b9050919050565b5f60025f8381526020019081526020015f2090503373ffffffffffffffffffffffffffffffffffffffff16816001015f9054906101000a900473ffffffffffffffffffffffffffffffffffffffff1673ffffffffffffffffffffffffffffffffffffffff1614610ad7576040517f08c379a0000000000000000000000000000000000000000000000000000000008152600401610ace90611cc1565b60405180910390fd5b60026004811115610aeb57610aea611476565b5b816006015f9054906101000a900460ff166004811115610b0e57610b0d611476565b5b14610b4e576040517f08c379a0000000000000000000000000000000000000000000000000000000008152600401610b4590611d29565b60405180910390fd5b6003816006015f6101000a81548160ff02191690836004811115610b7557610b74611476565b5b02179055505f606460058360030154610b8e9190611d47565b610b989190611db5565b90505f818360030154610bab9190611de5565b90505f836002015f9054906101000a900473ffffffffffffffffffffffffffffffffffffffff1673ffffffffffffffffffffffffffffffffffffffff1682604051610bf590611e45565b5f6040518083038185875af1925050503d805f8114610c2f576040519150601f19603f3d011682016040523d82523d5f602084013e610c34565b606091505b5050905080610c78576040517f08c379a0000000000000000000000000000000000000000000000000000000008152600401610c6f90611ea3565b60405180910390fd5b5f5f5f9054906101000a900473ffffffffffffffffffffffffffffffffffffffff1673ffffffffffffffffffffffffffffffffffffffff1684604051610cbd90611e45565b5f6040518083038185875af1925050503d805f8114610cf7576040519150601f19603f3d011682016040523d82523d5f602084013e610cfc565b606091505b5050905080610d40576040517f08c379a0000000000000000000000000000000000000000000000000000000008152600401610d3790611f0b565b60405180910390fd5b846002015f9054906101000a900473ffffffffffffffffffffffffffffffffffffffff1673ffffffffffffffffffffffffffffffffffffffff16867f21d71db5be59bb9fa133895586b7404307dd33fb93b16db09dc6f1d9d7d231b085604051610daa91906115eb565b60405180910390a3505050505050565b600581565b5f600154905090565b60015481565b6002602052805f5260405f205f91509050805f015490806001015f9054906101000a900473ffffffffffffffffffffffffffffffffffffffff1690806002015f9054906101000a900473ffffffffffffffffffffffffffffffffffffffff1690806003015490806004018054610e43906117ed565b80601f0160208091040260200160405190810160405280929190818152602001828054610e6f906117ed565b8015610eba5780601f10610e9157610100808354040283529160200191610eba565b820191905f5260205f20905b815481529060010190602001808311610e9d57829003601f168201915b505050505090806005018054610ecf906117ed565b80601f0160208091040260200160405190810160405280929190818152602001828054610efb906117ed565b8015610f465780601f10610f1d57610100808354040283529160200191610f46565b820191905f5260205f20905b815481529060010190602001808311610f2957829003601f168201915b505050505090806006015f9054906101000a900460ff16905087565b5f60025f8481526020019081526020015f2090503373ffffffffffffffffffffffffffffffffffffffff16816002015f9054906101000a900473ffffffffffffffffffffffffffffffffffffffff1673ffffffffffffffffffffffffffffffffffffffff1614611007576040517f08c379a0000000000000000000000000000000000000000000000000000000008152600401610ffe90611f73565b60405180910390fd5b6001600481111561101b5761101a611476565b5b816006015f9054906101000a900460ff16600481111561103e5761103d611476565b5b1461107e576040517f08c379a000000000000000000000000000000000000000000000000000000000815260040161107590611fdb565b60405180910390fd5b5f8251116110c1576040517f08c379a00000000000000000000000000000000000000000000000000000000081526004016110b890612043565b60405180910390fd5b818160050190816110d291906119ce565b506002816006015f6101000a81548160ff021916908360048111156110fa576110f9611476565b5b0217905550827f3822c71b106c7c1dabf7f076e68c9bd98c45d0cd0d073f4dcdaf422a0fe558478360405161112f9190612061565b60405180910390a2505050565b5f5f9054906101000a900473ffffffffffffffffffffffffffffffffffffffff1681565b6040518060e001604052805f81526020015f73ffffffffffffffffffffffffffffffffffffffff1681526020015f73ffffffffffffffffffffffffffffffffffffffff1681526020015f815260200160608152602001606081526020015f60048111156111d0576111cf611476565b5b81525090565b5f604051905090565b5f5ffd5b5f5ffd5b5f5ffd5b5f5ffd5b5f601f19601f8301169050919050565b7f4e487b71000000000000000000000000000000000000000000000000000000005f52604160045260245ffd5b611235826111ef565b810181811067ffffffffffffffff82111715611254576112536111ff565b5b80604052505050565b5f6112666111d6565b9050611272828261122c565b919050565b5f67ffffffffffffffff821115611291576112906111ff565b5b61129a826111ef565b9050602081019050919050565b828183375f83830152505050565b5f6112c76112c284611277565b61125d565b9050828152602081018484840111156112e3576112e26111eb565b5b6112ee8482856112a7565b509392505050565b5f82601f83011261130a576113096111e7565b5b813561131a8482602086016112b5565b91505092915050565b5f60208284031215611338576113376111df565b5b5f82013567ffffffffffffffff811115611355576113546111e3565b5b611361848285016112f6565b91505092915050565b5f819050919050565b61137c8161136a565b8114611386575f5ffd5b50565b5f8135905061139781611373565b92915050565b5f602082840312156113b2576113b16111df565b5b5f6113bf84828501611389565b91505092915050565b6113d18161136a565b82525050565b5f73ffffffffffffffffffffffffffffffffffffffff82169050919050565b5f611400826113d7565b9050919050565b611410816113f6565b82525050565b5f81519050919050565b5f82825260208201905092915050565b8281835e5f83830152505050565b5f61144882611416565b6114528185611420565b9350611462818560208601611430565b61146b816111ef565b840191505092915050565b7f4e487b71000000000000000000000000000000000000000000000000000000005f52602160045260245ffd5b600581106114b4576114b3611476565b5b50565b5f8190506114c4826114a3565b919050565b5f6114d3826114b7565b9050919050565b6114e3816114c9565b82525050565b5f60e083015f8301516114fe5f8601826113c8565b5060208301516115116020860182611407565b5060408301516115246040860182611407565b50606083015161153760608601826113c8565b506080830151848203608086015261154f828261143e565b91505060a083015184820360a0860152611569828261143e565b91505060c083015161157e60c08601826114da565b508091505092915050565b5f6020820190508181035f8301526115a181846114e9565b905092915050565b5f8115159050919050565b6115bd816115a9565b82525050565b5f6020820190506115d65f8301846115b4565b92915050565b6115e58161136a565b82525050565b5f6020820190506115fe5f8301846115dc565b92915050565b61160d816113f6565b82525050565b5f82825260208201905092915050565b5f61162d82611416565b6116378185611613565b9350611647818560208601611430565b611650816111ef565b840191505092915050565b611664816114c9565b82525050565b5f60e08201905061167d5f83018a6115dc565b61168a6020830189611604565b6116976040830188611604565b6116a460608301876115dc565b81810360808301526116b68186611623565b905081810360a08301526116ca8185611623565b90506116d960c083018461165b565b98975050505050505050565b5f5f604083850312156116fb576116fa6111df565b5b5f61170885828601611389565b925050602083013567ffffffffffffffff811115611729576117286111e3565b5b611735858286016112f6565b9150509250929050565b5f6020820190506117525f830184611604565b92915050565b7f5061796d656e74207265717569726564000000000000000000000000000000005f82015250565b5f61178c601083611613565b915061179782611758565b602082019050919050565b5f6020820190508181035f8301526117b981611780565b9050919050565b7f4e487b71000000000000000000000000000000000000000000000000000000005f52602260045260245ffd5b5f600282049050600182168061180457607f821691505b602082108103611817576118166117c0565b5b50919050565b5f819050815f5260205f209050919050565b5f6020601f8301049050919050565b5f82821b905092915050565b5f600883026118797fffffffffffffffffffffffffffffffffffffffffffffffffffffffffffffffff8261183e565b611883868361183e565b95508019841693508086168417925050509392505050565b5f819050919050565b5f6118be6118b96118b48461136a565b61189b565b61136a565b9050919050565b5f819050919050565b6118d7836118a4565b6118eb6118e3826118c5565b84845461184a565b825550505050565b5f5f905090565b6119026118f3565b61190d8184846118ce565b505050565b5f5b82811015611933576119285f8284016118fa565b600181019050611914565b505050565b601f8211156119865782821115611985576119528161181d565b61195b8361182f565b6119648561182f565b6020861015611971575f90505b80830161198082840382611912565b505050505b5b505050565b5f82821c905092915050565b5f6119a65f198460080261198b565b1980831691505092915050565b5f6119be8383611997565b9150826002028217905092915050565b6119d782611416565b67ffffffffffffffff8111156119f0576119ef6111ff565b5b6119fa82546117ed565b611a05828285611938565b5f60209050601f831160018114611a36575f8415611a24578287015190505b611a2e85826119b3565b865550611a95565b601f198416611a448661181d565b5f5b82811015611a6b57848901518255600182019150602085019450602081019050611a46565b86831015611a885784890151611a84601f891682611997565b8355505b6001600288020188555050505b505050505050565b5f604082019050611ab05f8301856115dc565b8181036020830152611ac28184611623565b90509392505050565b7f4e487b71000000000000000000000000000000000000000000000000000000005f52601160045260245ffd5b5f611b028261136a565b91507fffffffffffffffffffffffffffffffffffffffffffffffffffffffffffffffff8203611b3457611b33611acb565b5b600182019050919050565b7f5461736b20646f6573206e6f74206578697374000000000000000000000000005f82015250565b5f611b73601383611613565b9150611b7e82611b3f565b602082019050919050565b5f6020820190508181035f830152611ba081611b67565b9050919050565b7f5461736b206e6f7420617661696c61626c6500000000000000000000000000005f82015250565b5f611bdb601283611613565b9150611be682611ba7565b602082019050919050565b5f6020820190508181035f830152611c0881611bcf565b9050919050565b7f43616e6e6f742061636365707420796f7572206f776e207461736b00000000005f82015250565b5f611c43601b83611613565b9150611c4e82611c0f565b602082019050919050565b5f6020820190508181035f830152611c7081611c37565b9050919050565b7f4e6f742074686520656d706c6f796572000000000000000000000000000000005f82015250565b5f611cab601083611613565b9150611cb682611c77565b602082019050919050565b5f6020820190508181035f830152611cd881611c9f565b9050919050565b7f576f726b206e6f74207375626d697474656420796574000000000000000000005f82015250565b5f611d13601683611613565b9150611d1e82611cdf565b602082019050919050565b5f6020820190508181035f830152611d4081611d07565b9050919050565b5f611d518261136a565b9150611d5c8361136a565b9250828202611d6a8161136a565b91508282048414831517611d8157611d80611acb565b5b5092915050565b7f4e487b71000000000000000000000000000000000000000000000000000000005f52601260045260245ffd5b5f611dbf8261136a565b9150611dca8361136a565b925082611dda57611dd9611d88565b5b828204905092915050565b5f611def8261136a565b9150611dfa8361136a565b9250828203905081811115611e1257611e11611acb565b5b92915050565b5f81905092915050565b50565b5f611e305f83611e18565b9150611e3b82611e22565b5f82019050919050565b5f611e4f82611e25565b9150819050919050565b7f5061796d656e7420746f20776f726b6572206661696c656400000000000000005f82015250565b5f611e8d601883611613565b9150611e9882611e59565b602082019050919050565b5f6020820190508181035f830152611eba81611e81565b9050919050565b7f5061796d656e7420746f20706c6174666f726d206661696c65640000000000005f82015250565b5f611ef5601a83611613565b9150611f0082611ec1565b602082019050919050565b5f6020820190508181035f830152611f2281611ee9565b9050919050565b7f4e6f742061737369676e656420746f20796f75000000000000000000000000005f82015250565b5f611f5d601383611613565b9150611f6882611f29565b602082019050919050565b5f6020820190508181035f830152611f8a81611f51565b9050919050565b7f5461736b206e6f742061636365707465640000000000000000000000000000005f82015250565b5f611fc5601183611613565b9150611fd082611f91565b602082019050919050565b5f6020820190508181035f830152611ff281611fb9565b9050919050565b7f50726f6f662055524c20726571756972656400000000000000000000000000005f82015250565b5f61202d601283611613565b915061203882611ff9565b602082019050919050565b5f6020820190508181035f83015261205a81612021565b9050919050565b5f6020820190508181035f8301526120798184611623565b90509291505056fea26469706673582212205055f7cb2a4e453660fb2ac65c9e059c819a9bc19547b1d6e0f96e9a0b5f711f64736f6c63430008210033","linkReferences":{}},"methodIdentifiers":{"PLATFORM_FEE()":"34fbc9a1","acceptTask(uint256)":"1bf6912d","createTask(string)":"111002aa","getTask(uint256)":"1d65e77e","getTotalTasks()":"3c93b905","isTaskAvailable(uint256)":"322ac83d","platformWallet()":"fa2af9da","submitWork(uint256,string)":"da8accf9","taskCounter()":"58671730","tasks(uint256)":"8d977672","verifyAndRelease(uint256)":"3237803d"},"id":0}